:020000040000fa
:080000000002040000000000f2
:020000040000fa
:040008005a04000096
:020000040000fa
:04000c007e0300006f
:020000040000fa
:04001000c003000029
:020000040000fa
:040014009e03000047
:020000040000fa
:04001800e003000001
:020000040000fa
:04001c005a04000082
:020000040000fa
:040020005a0400007e
:020000040000fa
:040024005a0400007a
:020000040000fa
:040028005a04000076
:020000040000fa
:04002c005a04000072
:020000040000fa
:040030005a0400006e
:020000040000fa
:040034001c030000a9
:020000040000fa
:040038005a04000066
:020000040000fa
:04003c005a04000062
:020000040000fa
:040040005a0400005e
:020000040000fa
:040044005a0400005a
:020000040000fa
:040048005a04000056
:020000040000fa
:04004c005a04000052
:020000040000fa
:040050005a0400004e
:020000040000fa
:040054005a0400004a
:020000040000fa
:040058005a04000046
:020000040000fa
:04005c005a04000042
:020000040000fa
:040060005a0400003e
:020000040000fa
:040064005a0400003a
:020000040000fa
:040068003c04000054
:020000040000fa
:04006c001e0400006e
:020000040000fa
:040070005a0400002e
:020000040000fa
:040074005a0400002a
:020000040000fa
:040078000004000080
:020000040000fa
:04007c005a04000022
:020000040000fa
:040080005a0400001e
:020000040000fa
:040084005a0400001a
:020000040000fa
:040088005a04000016
:020000040000fa
:04008c005a04000012
:020000040000fa
:040090005a0400000e
:020000040000fa
:040094005a0400000a
:020000040000fa
:040098005a04000006
:020000040000fa
:04009c005a04000002
:020000040000fa
:0400a0005a040000fe
:020000040000fa
:0400a4005a040000fa
:020000040000fa
:0400a8005a040000f6
:020000040000fa
:0400ac005a040000f2
:020000040000fa
:0400b0005a040000ee
:020000040000fa
:0400b4005a040000ea
:020000040000fa
:0400b8005a040000e6
:020000040000fa
:0400bc005a040000e2
:020000040000fa
:0400c0005a040000de
:020000040000fa
:0400c4005a040000da
:020000040000fa
:0400c8005a040000d6
:020000040000fa
:0400cc005a040000d2
:020000040000fa
:0400d0005a040000ce
:020000040000fa
:0400d4005a040000ca
:020000040000fa
:0400d8005a040000c6
:020000040000fa
:0400dc005a040000c2
:020000040000fa
:0400e0005a040000be
:020000040000fa
:0400e4005a040000ba
:020000040000fa
:0400e8005a040000b6
:020000040000fa
:0400ec005a040000b2
:020000040000fa
:0400f0005a040000ae
:020000040000fa
:0400f4005a040000aa
:020000040000fa
:0400f8005a040000a6
:020000040000fa
:0400fc005a040000a2
:020000040000fa
:040100005a0400009d
:020000040000fa
:040104005a04000099
:020000040000fa
:040108005a04000095
:020000040000fa
:04010c005a04000091
:020000040000fa
:040110005a0400008d
:020000040000fa
:040114005a04000089
:020000040000fa
:040118005a04000085
:020000040000fa
:04011c005a04000081
:020000040000fa
:040120005a0400007d
:020000040000fa
:040124005a04000079
:020000040000fa
:040128005a04000075
:020000040000fa
:04012c005a04000071
:020000040000fa
:040130005a0400006d
:020000040000fa
:040134005a04000069
:020000040000fa
:040208005a04000094
:020000040000fa
:04020c007e0300006d
:020000040000fa
:04021000c003000027
:020000040000fa
:040214009e03000045
:020000040000fa
:04021800e0030000ff
:020000040000fa
:04021c005a04000080
:020000040000fa
:040220005a0400007c
:020000040000fa
:040224005a04000078
:020000040000fa
:040228005a04000074
:020000040000fa
:04022c005a04000070
:020000040000fa
:040230005a0400006c
:020000040000fa
:040234001c030000a7
:020000040000fa
:040238005a04000064
:020000040000fa
:04023c005a04000060
:020000040000fa
:040240005a0400005c
:020000040000fa
:040244005a04000058
:020000040000fa
:040248005a04000054
:020000040000fa
:04024c005a04000050
:020000040000fa
:040250005a0400004c
:020000040000fa
:040254005a04000048
:020000040000fa
:040258005a04000044
:020000040000fa
:04025c005a04000040
:020000040000fa
:040260005a0400003c
:020000040000fa
:040264005a04000038
:020000040000fa
:040268003c04000052
:020000040000fa
:04026c001e0400006c
:020000040000fa
:040270005a0400002c
:020000040000fa
:040274005a04000028
:020000040000fa
:04027800000400007e
:020000040000fa
:04027c005a04000020
:020000040000fa
:040280005a0400001c
:020000040000fa
:040284005a04000018
:020000040000fa
:040288005a04000014
:020000040000fa
:04028c005a04000010
:020000040000fa
:040290005a0400000c
:020000040000fa
:040294005a04000008
:020000040000fa
:040298005a04000004
:020000040000fa
:04029c005a04000000
:020000040000fa
:0402a0005a040000fc
:020000040000fa
:0402a4005a040000f8
:020000040000fa
:0402a8005a040000f4
:020000040000fa
:0402ac005a040000f0
:020000040000fa
:0402b0005a040000ec
:020000040000fa
:0402b4005a040000e8
:020000040000fa
:0402b8005a040000e4
:020000040000fa
:0402bc005a040000e0
:020000040000fa
:0402c0005a040000dc
:020000040000fa
:0402c4005a040000d8
:020000040000fa
:0402c8005a040000d4
:020000040000fa
:0402cc005a040000d0
:020000040000fa
:0402d0005a040000cc
:020000040000fa
:0402d4005a040000c8
:020000040000fa
:0402d8005a040000c4
:020000040000fa
:0402dc005a040000c0
:020000040000fa
:0402e0005a040000bc
:020000040000fa
:0402e4005a040000b8
:020000040000fa
:0402e8005a040000b4
:020000040000fa
:0402ec005a040000b0
:020000040000fa
:0402f0005a040000ac
:020000040000fa
:0402f4005a040000a8
:020000040000fa
:0402f8005a040000a4
:020000040000fa
:0402fc005a040000a0
:020000040000fa
:040300005a0400009b
:020000040000fa
:040304005a04000097
:020000040000fa
:040308005a04000093
:020000040000fa
:04030c005a0400008f
:020000040000fa
:040310005a0400008b
:020000040000fa
:040314005a04000087
:020000040000fa
:040318005a04000083
:020000040000fa
:04031c005a0400007f
:020000040000fa
:040320005a0400007b
:020000040000fa
:040324005a04000077
:020000040000fa
:040328005a04000073
:020000040000fa
:04032c005a0400006f
:020000040000fa
:040330005a0400006b
:020000040000fa
:040334005a04000067
:020000040000fa
:100400006fc920000e7f22000e018800000000004e
:10041000000020000000e000020032000001200087
:100420002002880014000700240107000000e000fb
:1004300003003a0000e8200001002000020037001d
:100440000000200001002000810f70000100320038
:1004500014000700000020000000e000020032004d
:100460000000020000000000140a0200000000006a
:100470000040da000000fe004440a9000000200017
:100480000000e0000300320000002000a00188000e
:100490004440a800000006008a1f78008b1f7800e7
:1004a0000000060091018800800478000000eb0045
:1004b0001a003700e284440032a0b4009905ba0063
:1004c000e284440032a0b4009906ba00e2844400f9
:1004d00032a0b4000006eb00476fde00fd07b2005b
:1004e000636ce10003003a00ebff07000000eb0043
:1004f0000a003700606ce10004003a00005deb0088
:100500008b05e900fdff3e00040037006168e10053
:10051000010032000086eb000b00070019c7ba008b
:100520001905ba000e04e00003003a000a00e000da
:10053000e0ff3a0000000600fe07b2009e018800be
:100540008a047800f5ff3700395dba008b05e900b1
:100550000c003200295dba008b05e900080032006a
:100560000c00e00003003a00e284440032a0b40032
:10057000f5ff370019ddba008b05e900faff3a00f4
:100580008904e800e184440032a0b40000000600c1
:10059000b407040000000000be07040000000000d3
:1005a000ac07040000000000840704000000000005
:1005b00012060400000000004c06040000000000c9
:1005c0006806040000000000ce06040000000000e1
:1005d0001a070400000000007e060400000000006e
:1005e000580704000000000024060400000000007a
:1005f0002e06040000000000380604000000000081
:1006000042060400000000008e0604000000000006
:100610009806040000000000a2060400000000008c
:10062000fe05040000000000ac060400000000000d
:10063000200e0400000000003600f800809fbe007d
:10064000829fbe00849fbe00869fbe000000fa000d
:10065000ca22a90021408000b04080000000400074
:100660000080400010007800404188004041800038
:100670000000e00001003a000000fe004041800060
:1006800000c0a00040418800404180001e050700d6
:1006900040418800ca22a800b04080000000e80065
:1006a000b0408800b1408000f00f2000808f5000e3
:1006b000020036008680a8001628ef0050c92000ee
:1006c000104078008040e80050c9200001487800c0
:1006d00040c9200011c0b300014878008460a9001f
:1006e0000080fa004f03be004f02be004f01be0063
:1006f0004f00be003600f900004006003600f8004a
:10070000809fbe00829fbe00849fbe00869fbe0069
:100710000000fa008020a9000000eb00130607008b
:100720000080fa004f03be004f02be004f01be0022
:100730004f00be003600f900004006003600f80009
:10074000809fbe00829fbe00849fbe00869fbe0029
:100750000000fa000a0607008040a90010002000ef
:10076000020607000080fa004f03be004f02be00e1
:100770004f01be004f00be003600f90000400600e9
:100780003600f800809fbe00829fbe00849fbe009e
:10079000869fbe000000fa008060a90020002000b3
:1007a000f20507000080fa004f03be004f02be00b2
:1007b0004f01be004f00be003600f90000400600a9
:1007c0003600f800809fbe00829fbe00849fbe005e
:1007d000869fbe000000fa008080a9003000200043
:1007e000e20507000080fa004f03be004f02be0082
:1007f0004f01be004f00be003600f9000040060069
:100800003600f800809fbe00829fbe00849fbe001d
:10081000869fbe000000fa00ee0207008680a90055
:100820000080fa004f03be004f02be004f01be0021
:100830004f00be003600f900004006003600f80008
:10084000809fbe00829fbe00849fbe00869fbe0028
:100850000000fa0010418000000001000080fa0052
:100860004f03be004f02be004f01be004f00be004e
:100870003600f900004006003600f800809fbe00f8
:10088000829fbe00849fbe00869fbe000000fa00cb
:1008900020418000000001000080fa004f03be00ec
:1008a0004f02be004f01be004f00be003600f900ef
:1008b000004006000040da000000fe0000000500d5
:020000040000fa
:1008c0000400fa00000f7800110798001e01900044
:1008d0009e0078000000eb00ad0107000080fa00e8
:1008e000000006000400fa00000f780011079800cd
:1008f0001e0190009e00780010002000a401070057
:100900000080fa00000006000400fa00000f7800e2
:10091000110798001e0190009e0078002000200022
:100920009b0107000080fa00000006000400fa00a6
:10093000000f7800110798001e0190009e007800bb
:1009400030002000920107000080fa00000006003d
:100950000400fa00000f7800110798001e019000b3
:100960009e00780040002000890107000080fa0006
:10097000000006000400fa00204798001000200044
:10098000000f780070618000620060000000e000ed
:1009900032003a00f0c22000ae40900001487800da
:1009a000706180000000a1007061880070618000ab
:1009b0000010a00070618800706180000030a1000c
:1009c00070618800e0002000c0618800401f2000a6
:1009d000b0618800706180000020a0007061880014
:1009e000407b2000e06188000000eb00406288004e
:1009f000407b2000f06188000000eb00506288001e
:100a0000407b2000006288000000eb0060628800ec
:100a1000407b2000106288000000eb0070628800bc
:100a2000e07b2000206288000000eb0080628800ec
:100a3000f0020700cd020700c07a20009c030700e7
:100a400040782000a003070040782000a40307009e
:100a5000ad0207000000eb00000f78001e007800d8
:100a60000080fa00000006000200fa00004f780043
:100a7000f0c220001e4878000080fa000000060046
:100a80000200fa0010002000000f78007061800062
:100a9000610060000000e0000a003a007061800020
:100aa0000010a10070618800f0c2200080c0eb003f
:100ab00001487800ad020700a7020700d16180005d
:100ac000010f78001e0078000080fa000000060088
:100ad0000200fa00004f78009f0207001e80fb0012
:100ae000b0618800880207000080fa00000006005c
:100af0000400fa00000f7800110798007061800070
:100b0000640060000000e000070032001e00780072
:100b1000806188009e009000916188007061800073
:100b20000020a100706188000080fa00000006002b
:100b30000400fa002047980010002000000f780001
:100b400070618000610060000000e00013003a0066
:100b5000706180000000a000706188000000eb0060
:100b6000000f78002e4090000004e00003003200e7
:100b700010002000c0618800020037002000200023
:100b8000c0618800bb020700640207000004a200e5
:100b90000004e000010032000d0007001e00780094
:100ba0000080fa00000006000000fa0010c0b30048
:100bb000dfff07000080fa00000006000000fa00d6
:100bc0000040eb00daff07000080fa00000006009a
:100bd0000000fa00030037000000eb006d02070080
:100be000c900070070618000610060000000e00043
:100bf000f9ff3a000080fa00000006000000fa0049
:100c000099020700706180000000a10070618800f7
:100c10000000eb00d0618800e00020000080fa00b6
:100c2000000006000000fa00706180000000a100d2
:100c3000706188000000eb00d0618800e0002000b7
:100c40000080fa00000006000000fa008d02070094
:100c5000100020000080fa00000006000000fa00ea
:100c600088020700200020000080fa000000060033
:100c70000000fa0083020700100020000080fa0044
:100c8000000006000000fa00820207000000eb00ee
:100c90000080fa00000006000000fa007061800089
:100ca0000030a00070618800f0c220001040780081
:100cb0000080fb0000004000004078000004a0001d
:100cc0008d020700500020000080fa00000006009e
:100cd0000000fa00706180000030a00070618800a0
:100ce000f0c220001040780000404000820207005f
:100cf000300020000080fa00000006000000fa002a
:100d0000706180000030a1007061880071020700ee
:100d1000400020000080fa00000006000000fa00f9
:100d20007b020700500020000080fa00000006004f
:100d30000000fa007b020700a00020000080fa00fb
:100d4000000006000000fa00760207009000200074
:100d50000080fa00000006000000fa0070618000c8
:100d60000030a1007061880020002000d061880060
:100d70000162800060628000010001000080e900e3
:100d8000e10f500002003e00b9ff070001003700ec
:100d9000bcff07000080fa00000006000000fa0017
:100da000400207000004e0000e00320011628000e3
:100db0007062800001000100e20f50000300320069
:100dc000e30f500003003200040037009eff0700cd
:100dd00016003700a1ff070014003700a9ff070025
:100de00012003700706180000030a100706188003f
:100df00080618000904078000000e80080618800f9
:100e0000014078003c020700906180000000e9008a
:100e100090618800906180000000e00002003200d4
:100e20003000200001003700600020000080fa0040
:100e3000000006000000fa00881f7800886180002a
:100e400028020700004c78000800e8008061880054
:100e5000906180000000e90090618800906180004e
:100e60000000e000030032002902070050002000cb
:100e70000c003700706180000020a00070618800c5
:100e8000e161800040628000010001000080e90013
:100e9000e10f500002003e00aaff070001003700ea
:100ea000a3ff07004f0478000080fa00000006004e
:100eb0000000fa00706180000020a00070618800ce
:100ec000e16180004062800001000100e20f5000fb
:100ed0000a003900e30f500003003600e40f500011
:100ee000030032000500370061ff070004003700ef
:100ef000a3010700300020000100370061ff070058
:100f00000080fa00000006000000fa0097010700c8
:100f100070618000680060000000e00005003200a1
:100f2000e00107000004e00002003200f0002000b1
:100f3000c0618800c06180008000400040c5200082
:100f4000008040001000780000000100c0618800af
:100f50000080fa00000006000000fa0044020700ca
:100f60000080fa00000006000200fa00000f78007e
:100f7000100020000080fa00000006000200fa00c5
:100f8000000f7800500020000080fa0000000600ea
:100f90000600fa00000f7800110798002207980059
:100fa0001e0090000000e0000f0032009e0078005c
:100fb0006780400080004000e0c2200000804000c8
:100fc0009e009000010878009e0078006d8040002f
:100fd00080004000e0c2200000804000ae00900091
:100fe000010878000e0037009e00780067804000fe
:100ff00080004000e0c2200000804000417b2000d3
:10100000010878009e0078006d804000800040005c
:10101000e0c22000008040008000eb000108780062
:101020000080fa00000006000000fa0030002000f6
:101030002010880000002800301088000822ef00ef
:101040000080fa00000006000000fa008620a900d7
:101050009620a8000080fa00000006000000fa00b8
:101060000a28ef00e082200030408800e0a2200043
:10107000204088000080fa00000006000000fa000e
:101080008620a9000080fa00000006000000fa0097
:101090000602a8000000000030048000620060002a
:1010a0000000e000fcff3200f4ff07000000000039
:1010b00030108000610060000000e000fcff3a009a
:1010c0000080fa00000006000000fa000622a800d6
:1010d0000000000030048000620060000000e000ba
:1010e000fcff3200e5ff0700000000003010800028
:1010f000620060000000e000fcff3a000080fa009f
:10110000000006000000fa000642a80000000000ef
:1011100030048000620060000000e000fcff32004c
:10112000d6ff07000000000030108000640060005f
:101130000000e000fcff3a000080fa00000006001a
:101140000200fa00000f78009e007800111088005d
:101150000000000030048000620060000000e00039
:10116000fcff3200c5ff07000000000041108000b6
:1011700000002800008060000000e000fbff3a0053
:101180000080fa00000006000000fa000662a800d5
:101190000000000030048000620060000000e000f9
:1011a000fcff3200b5ff0700000000003010800097
:1011b000680060000000e000fcff3a000500370016
:1011c0000000000030048000620060000000e000c9
:1011d000fcff320040108000620060000000e00070
:1011e000f7ff3200a5ff070000108000a040880034
:1011f00040108000620060000000e0000200320049
:10120000a0408000000037000080fa0000000600c7
:101210000000fa009dff070010c8bf000080fb001f
:10122000c7ff0700d8ff0700a0408800b5ff0700f0
:10123000a04080000080fa00000006000000fa00d4
:101240000662a80000000000301080006800600006
:101250000000e000fcff3a0005003700000000003d
:1012600030048000620060000000e000fcff3200fb
:1012700040108000620060000000e000f7ff3200d4
:101280007eff070000108000a040880001003700aa
:1012900006a2a90040108000620060000000e0008b
:1012a000fbff3a000682a80000000000301080001a
:1012b000700060000000e000fcff3a00a0408000e9
:1012c0000080fa00000006000000fa001628ef0077
:1012d000c402a800ceff0700c0408800c402a900d5
:1012e0006aff070010c8bf000080fb0094ff0700e2
:1012f0000028ef0017003700d0ff07004400dd0092
:10130000a040880020168000004078006140600006
:101310000004a200614060000080fb0061006000ea
:10132000211680000100a100010070002016880035
:1013300031408000004080000000400000804000fc
:10134000a140800001087800004080000000e80013
:101350000040880001408000f00f2000808f500086
:10136000e5ff36000000000087ff0700c04088004e
:10137000c402a90063ff07000080fa000000060015
:101380000000fa0041ff07000fc8bf000080fb000b
:101390006bff07000dc8bf000080fb0068ff07005f
:1013a0000cc8bf000080fb0065ff070046ff070078
:1013b00010c8bf000080fb0061ff070072ff07003c
:1013c000a04088004fff0700a04080000080fa0086
:1013d000000006000000fa00504080000000e0001d
:1013e00007003a001000200050408800e0a22000d2
:1013f00030408800e082200020408800050037004f
:101400000a28ef00e082200030408800e0a220009f
:101410002040880010c0b30008e8b700aaff07000a
:101420000080fa00000006000000fa0007e2a900b0
:1014300041e2a9001268ef00e1020700fafe07008e
:1014400006ff070000ff0700d0408000e140800059
:10145000004078000ce8b700d0408000e1408000f8
:101460004809dd004800de0000007100c808de0009
:10147000004078000de8b700d0408000e1408000d7
:101480004008de0000407800634060000ee8b700ce
:101490000ec8bf00004040000fe8b700f1802000f8
:1014a0009140780080cab30000c070000fe8b70018
:1014b0000ec8bf000040400010e8b70001812000c6
:1014c0009140780090cab30000c0700010e8b700e7
:1014d000abff0700a04088007bff0700bdff0700af
:1014e00079ff07000868ef000968ef00a80107000e
:1014f000c622a900ffff37000000fa0007e2a9009a
:101500000080fa00000006000000fa009620a80003
:101510009600a9000080fa00000006000000fa0012
:10152000b0048000620060000000e00004003a00a7
:10153000b0048000610060000000e00002003200a2
:1015400010002000010037000000eb000040780090
:101550000080fa00000006000000fa009620a900b2
:101560009600a9000080fa00000006000000fa00c2
:101570008620a9008600a9000080fa00000006006d
:101580000000fa008620a8008600a8000080fa006b
:10159000000006000200fa00000f7800300480000e
:1015a000620060000000e00010003a00300480009b
:1015b000610060000000e0000c003a003004800090
:1015c000620060000000e00008003a003004800083
:1015d000610060000000e00004003a0000192000f3
:1015e0000100200053020700f4ff37000080fa00da
:1015f000000006000000fa00311080000000280002
:10160000008060000000e00007003a000822ef00c0
:101610000000280030108800900020002010880072
:1016200010c0b300010037000040eb000080fa005a
:10163000000006000000fa003110800000002800c1
:10164000008060000000e00004003a0006c2a8002c
:1016500007e2a80010c0b300010037000040eb0013
:101660000080fa00000006000000fa000080fa0086
:10167000000006000000fa000602a8000080fa0040
:10168000000006000000fa000622a8000080fa0010
:10169000000006000000fa000642a8000080fa00e0
:1016a000000006000000fa00401080004f00de003d
:1016b000004078000080fb0000f0a7000000ea0076
:1016c0000000ea004f00de00004078000080fa00d1
:1016d000000006000000fa000662a8000080fa0080
:1016e000000006000000fa000010800000407800b2
:1016f0000080fa00000006000200fa00004f7800a7
:101700001e80fb00101088000080fa000000060018
:101710000000fa0006a2a9000682a8000080fa00d4
:10172000000006000000fa0006a2a8000682a80039
:101730000080fa00000006000000fa000782a800fe
:101740000080fa00000006000000fa00401080004f
:10175000620060000000e00004003a0040108000d9
:10176000610060000000e000020032001000200074
:10177000010037000000eb00004078000080fa0014
:10178000000006000000fa00401080004300de0068
:10179000614060000080fb0000f0a7000000ea004c
:1017a0000000ea004f00de00004078000080fa00f0
:1017b000000006000000fa00411080000002200036
:1017c0000080600000f0a7000000ea000000e900cf
:1017d0004f00de00004078000080fa0000000600a4
:1017e0000000fa00401080004400de00614060000c
:1017f0000080fb0000f0a7000000ea000000ea0003
:101800004f00de00004078000080fa000000060073
:101810000000fa00401080004500de0061406000da
:101820000080fb0000f0a7000000ea000000ea00d2
:101830004f00de00004078000080fa000000060043
:101840000000fa00401080004200de0061406000ad
:101850000080fb0000f0a7000000ea000000ea00a2
:101860004f00de00004078000080fa000000060013
:101870000000fa000942a9000080fa0000000600fa
:101880000000fa000080fa00000006000000fa00e4
:101890000080fa00000006000000fa000080fa0054
:1018a000000006000000fa000080fa0000000600b8
:1018b0000200fa00000f78009e00780001418800c5
:1018c0000080fa00000006000200fa00000f780015
:1018d0009e007800114188000080fa000000060098
:1018e0000200fa00000f78009e0078002141880075
:1018f0000080fa00000006000000fa0030522000cc
:10190000101288001000200020128800c00028005b
:10191000001288000080fa00000006000400fa00af
:10192000000f7800110798000000000000128000ee
:10193000620060000000e000fcff3a001e0078003a
:1019400010007800401288000000000001128000a2
:1019500000022000008060000000e000fbff3a0071
:101960001e00900041128000010878000080fa00fb
:10197000000006001800fa00100f9800210f9800d0
:10198000320f98000000eb00000f78000000eb0021
:10199000100798000000eb00700798000000eb00b3
:1019a000000f980020002000600798002e0890008b
:1019b0000000d100200f98001e0890000000e000f9
:1019c00005003a000000eb00500798007000470047
:1019d0002007980004003700ee009000510798009f
:1019e0009e089000210798003e0890000000e0004b
:1019f00005003a000000eb00400798006e00470029
:101a00003007980005003700ee009000410798006d
:101a1000be0890003107980000000000001280000e
:101a2000620060000000e000fcff3a001b0037008d
:101a300000128000620060000000e00008003a0030
:101a40002e0090001000780040128800ae00900038
:101a50005e00900000804000200798001e0fe80004
:101a60000112800000022000008060000000e00001
:101a70000a003a003e009000411280000108780000
:101a8000be0090004e00900000804000300798009b
:101a90001e0090000000e800100798002e0890003b
:101aa0009e007800808f5000e1ff39000f00370062
:101ab0000112800000022000008060000000e000b1
:101ac0000a003a003e0090004112800001087800b0
:101ad000be0090004e00900000804000300798004b
:101ae0001e0090000000e800100798009e00900083
:101af0002e089000808f5000edff39001e00780006
:101b00000080fa00000006000400fa0010079800a8
:101b10008e0078000e80e80080ff07001e0078002d
:101b20000080fa00000006000600fa00000f7800ae
:101b30001107980022079800ae0090001e00780060
:101b4000010178009e0090008aff07000080fa00e3
:101b5000000006000000fa00111280000040200082
:101b6000008060000000e00002003a000000eb008e
:101b700001003700100020000080fa00000006007d
:101b80000000fa00001280000080fa000000060049
:101b90000000fa000021ef00f01320001008880078
:101ba0000000280020088800304180000000e0008c
:101bb00002003a0000e22000240007008460a9002f
:101bc0009460a80040c920008040eb0001487800e4
:101bd0000080fa00000006000200fa00000f780002
:101be0009e0078001108880040c920008040eb006a
:101bf000014878000080fa00000006000000fa00aa
:101c0000100880000080fa00000006000200fa00c0
:101c1000000f78009e0078000108880040c920006d
:101c20008040eb00014878000080fa0000000600c8
:101c30000000fa00000880000080fa0000000600a2
:101c40000000fa000080fa00000006000200fa001e
:101c5000000f78009460a9009e0078003141880050
:101c60009460a8000080fa00000006000000fa005e
:101c700040c920008040eb00014878009460a80033
:101c800005e1a8000080fa00000006000000fa004c
:101c900005e1a9009460a9000080fa000000060098
:101ca0000200fa0040c92000104f78001e40780062
:101cb0000004e0000300320040c920008040eb0037
:101cc000014878001e4078000080fa0000000600fd
:101cd0000000fa0050c92000104078000080fb008e
:101ce0000080fa00000006000000fa0050c9200041
:101cf0008040eb00014878000080fa0000000600f8
:020000040000fa
:101d0000540c0000200000000200000012064c00ed
:101d100006680600ce061a00077e06005807240053
:101d2000062e060038064200068e06009806a2001f
:101d300006fe0500ac0600002e0c00002600000088
:101d400000000000940c00000200000000000000f1
:101d5000260800000400000000000000740c0000d1
:101d600020000000000000002a080000020000001f
:101d700002000000ffff0000200800000600000035
:101d8000000000002e080000000400000000000019
:101d90000008000020000000000000002c080000e7
:101da000020000000200000001010000000000002d
:020000040000fa
:101db0000000fa00c422ef00ca22ef00d022ef0098
:101dc000d622ef00dc22ef00e222ef00e822ef0053
:101dd000c06f2c0000168800d0ff2f00301688003e
:101de000e0012700601688000080eb009016880054
:101df000f03f2000c0168800f00f2300f016880086
:101e0000f03c2f00201788006820ef006a20ef00c8
:101e1000c026ef00c626ef00cc26ef00d226ef004a
:101e2000d826ef00de26ef00e426ef00200c20008d
:101e3000601988000080fa00000006000000fa0027
:101e400000102300203a88004827ef007027ef0099
:101e50007227ef007427ef000001eb0080072000dd
:101e6000a10920003374200080497800814978005e
:101e7000824978000001eb00600420007105200019
:101e800023742000804978008149780082497800d5
:101e90000080fa00000006000200fa00000f78003f
:101ea000100020000080fa00000006000200fa0086
:101eb000000f7800500020000080fa0000000600ab
:101ec0000200fa00000f7800300020000080fa00c5
:101ed000000006000200fa00000f78002000200039
:101ee0000080fa00000006000000fa007105800082
:101ef00080ff2f00008060000010a00070058800a7
:101f000061058000f0f82f00008060000040a00014
:101f10006005880021058000f0ff280080806000b7
:101f20000000230001007000200588000080fa00f6
:041f300000000600a7
:020000040000fa
:101f3400f03fb1000180b10006003500ee03090056
:101f440000000000403fb1000180b100fbff3d00f4
:101f54001000b000203fb0000200350000800900ee
:081f640000000000000006006f
:020000040000fa
:101f6c000200fa00000f78009e00780051418800b2
:101f7c00ffff37000000fa0040c720008007780000
:101f8c00c0c82000000188000080fa000000060094
:101f9c000000fa000080fa00000006000000fa00c1
:101fac008680a9008220a9009680a8000080fa00f3
:101fbc00000006000000fa007aff07009cff0700f3
:101fcc00c6ff070049fe0700f4ff07000080fa0077
:041fdc0000000600fb
:020000040000fa
:020000040002f8
:04aff8009f7800003e
:020000040000fa
:020000040002f8
:04affc007f3f000093
:00000001FF
